{
  "_format": "hh3-artifact-1",
  "contractName": "ArtCertifySBT",
  "sourceName": "contracts/ArtCertifySBT.sol",
  "abi": [
    {
      "inputs": [
        {
          "internalType": "address",
          "name": "initialOwner",
          "type": "address"
        }
      ],
      "stateMutability": "nonpayable",
      "type": "constructor"
    },
    {
      "inputs": [
        {
          "internalType": "address",
          "name": "sender",
          "type": "address"
        },
        {
          "internalType": "uint256",
          "name": "tokenId",
          "type": "uint256"
        },
        {
          "internalType": "address",
          "name": "owner",
          "type": "address"
        }
      ],
      "name": "ERC721IncorrectOwner",
      "type": "error"
    },
    {
      "inputs": [
        {
          "internalType": "address",
          "name": "operator",
          "type": "address"
        },
        {
          "internalType": "uint256",
          "name": "tokenId",
          "type": "uint256"
        }
      ],
      "name": "ERC721InsufficientApproval",
      "type": "error"
    },
    {
      "inputs": [
        {
          "internalType": "address",
          "name": "approver",
          "type": "address"
        }
      ],
      "name": "ERC721InvalidApprover",
      "type": "error"
    },
    {
      "inputs": [
        {
          "internalType": "address",
          "name": "operator",
          "type": "address"
        }
      ],
      "name": "ERC721InvalidOperator",
      "type": "error"
    },
    {
      "inputs": [
        {
          "internalType": "address",
          "name": "owner",
          "type": "address"
        }
      ],
      "name": "ERC721InvalidOwner",
      "type": "error"
    },
    {
      "inputs": [
        {
          "internalType": "address",
          "name": "receiver",
          "type": "address"
        }
      ],
      "name": "ERC721InvalidReceiver",
      "type": "error"
    },
    {
      "inputs": [
        {
          "internalType": "address",
          "name": "sender",
          "type": "address"
        }
      ],
      "name": "ERC721InvalidSender",
      "type": "error"
    },
    {
      "inputs": [
        {
          "internalType": "uint256",
          "name": "tokenId",
          "type": "uint256"
        }
      ],
      "name": "ERC721NonexistentToken",
      "type": "error"
    },
    {
      "inputs": [
        {
          "internalType": "address",
          "name": "owner",
          "type": "address"
        }
      ],
      "name": "OwnableInvalidOwner",
      "type": "error"
    },
    {
      "inputs": [
        {
          "internalType": "address",
          "name": "account",
          "type": "address"
        }
      ],
      "name": "OwnableUnauthorizedAccount",
      "type": "error"
    },
    {
      "inputs": [],
      "name": "TokenLocked",
      "type": "error"
    },
    {
      "anonymous": false,
      "inputs": [
        {
          "indexed": true,
          "internalType": "address",
          "name": "owner",
          "type": "address"
        },
        {
          "indexed": true,
          "internalType": "address",
          "name": "approved",
          "type": "address"
        },
        {
          "indexed": true,
          "internalType": "uint256",
          "name": "tokenId",
          "type": "uint256"
        }
      ],
      "name": "Approval",
      "type": "event"
    },
    {
      "anonymous": false,
      "inputs": [
        {
          "indexed": true,
          "internalType": "address",
          "name": "owner",
          "type": "address"
        },
        {
          "indexed": true,
          "internalType": "address",
          "name": "operator",
          "type": "address"
        },
        {
          "indexed": false,
          "internalType": "bool",
          "name": "approved",
          "type": "bool"
        }
      ],
      "name": "ApprovalForAll",
      "type": "event"
    },
    {
      "anonymous": false,
      "inputs": [
        {
          "indexed": true,
          "internalType": "address",
          "name": "previousOwner",
          "type": "address"
        },
        {
          "indexed": true,
          "internalType": "address",
          "name": "newOwner",
          "type": "address"
        }
      ],
      "name": "OwnershipTransferred",
      "type": "event"
    },
    {
      "anonymous": false,
      "inputs": [
        {
          "indexed": true,
          "internalType": "address",
          "name": "from",
          "type": "address"
        },
        {
          "indexed": true,
          "internalType": "address",
          "name": "to",
          "type": "address"
        },
        {
          "indexed": true,
          "internalType": "uint256",
          "name": "tokenId",
          "type": "uint256"
        }
      ],
      "name": "Transfer",
      "type": "event"
    },
    {
      "inputs": [],
      "name": "LOCKED_INTERFACE_ID",
      "outputs": [
        {
          "internalType": "bytes4",
          "name": "",
          "type": "bytes4"
        }
      ],
      "stateMutability": "view",
      "type": "function"
    },
    {
      "inputs": [
        {
          "internalType": "address",
          "name": "to",
          "type": "address"
        },
        {
          "internalType": "uint256",
          "name": "tokenId",
          "type": "uint256"
        }
      ],
      "name": "approve",
      "outputs": [],
      "stateMutability": "nonpayable",
      "type": "function"
    },
    {
      "inputs": [
        {
          "internalType": "address",
          "name": "owner",
          "type": "address"
        }
      ],
      "name": "balanceOf",
      "outputs": [
        {
          "internalType": "uint256",
          "name": "",
          "type": "uint256"
        }
      ],
      "stateMutability": "view",
      "type": "function"
    },
    {
      "inputs": [
        {
          "internalType": "uint256",
          "name": "tokenId",
          "type": "uint256"
        }
      ],
      "name": "getApproved",
      "outputs": [
        {
          "internalType": "address",
          "name": "",
          "type": "address"
        }
      ],
      "stateMutability": "view",
      "type": "function"
    },
    {
      "inputs": [
        {
          "internalType": "address",
          "name": "owner",
          "type": "address"
        },
        {
          "internalType": "address",
          "name": "operator",
          "type": "address"
        }
      ],
      "name": "isApprovedForAll",
      "outputs": [
        {
          "internalType": "bool",
          "name": "",
          "type": "bool"
        }
      ],
      "stateMutability": "view",
      "type": "function"
    },
    {
      "inputs": [
        {
          "internalType": "uint256",
          "name": "",
          "type": "uint256"
        }
      ],
      "name": "locked",
      "outputs": [
        {
          "internalType": "bool",
          "name": "",
          "type": "bool"
        }
      ],
      "stateMutability": "pure",
      "type": "function"
    },
    {
      "inputs": [
        {
          "internalType": "address",
          "name": "to",
          "type": "address"
        },
        {
          "internalType": "string",
          "name": "tokenURI_",
          "type": "string"
        }
      ],
      "name": "mint",
      "outputs": [
        {
          "internalType": "uint256",
          "name": "tokenId",
          "type": "uint256"
        }
      ],
      "stateMutability": "nonpayable",
      "type": "function"
    },
    {
      "inputs": [],
      "name": "name",
      "outputs": [
        {
          "internalType": "string",
          "name": "",
          "type": "string"
        }
      ],
      "stateMutability": "view",
      "type": "function"
    },
    {
      "inputs": [],
      "name": "owner",
      "outputs": [
        {
          "internalType": "address",
          "name": "",
          "type": "address"
        }
      ],
      "stateMutability": "view",
      "type": "function"
    },
    {
      "inputs": [
        {
          "internalType": "uint256",
          "name": "tokenId",
          "type": "uint256"
        }
      ],
      "name": "ownerOf",
      "outputs": [
        {
          "internalType": "address",
          "name": "",
          "type": "address"
        }
      ],
      "stateMutability": "view",
      "type": "function"
    },
    {
      "inputs": [],
      "name": "renounceOwnership",
      "outputs": [],
      "stateMutability": "nonpayable",
      "type": "function"
    },
    {
      "inputs": [
        {
          "internalType": "address",
          "name": "from",
          "type": "address"
        },
        {
          "internalType": "address",
          "name": "to",
          "type": "address"
        },
        {
          "internalType": "uint256",
          "name": "tokenId",
          "type": "uint256"
        }
      ],
      "name": "safeTransferFrom",
      "outputs": [],
      "stateMutability": "nonpayable",
      "type": "function"
    },
    {
      "inputs": [
        {
          "internalType": "address",
          "name": "from",
          "type": "address"
        },
        {
          "internalType": "address",
          "name": "to",
          "type": "address"
        },
        {
          "internalType": "uint256",
          "name": "tokenId",
          "type": "uint256"
        },
        {
          "internalType": "bytes",
          "name": "data",
          "type": "bytes"
        }
      ],
      "name": "safeTransferFrom",
      "outputs": [],
      "stateMutability": "nonpayable",
      "type": "function"
    },
    {
      "inputs": [
        {
          "internalType": "address",
          "name": "operator",
          "type": "address"
        },
        {
          "internalType": "bool",
          "name": "approved",
          "type": "bool"
        }
      ],
      "name": "setApprovalForAll",
      "outputs": [],
      "stateMutability": "nonpayable",
      "type": "function"
    },
    {
      "inputs": [
        {
          "internalType": "uint256",
          "name": "tokenId",
          "type": "uint256"
        },
        {
          "internalType": "string",
          "name": "tokenURI_",
          "type": "string"
        }
      ],
      "name": "setTokenURI",
      "outputs": [],
      "stateMutability": "nonpayable",
      "type": "function"
    },
    {
      "inputs": [
        {
          "internalType": "bytes4",
          "name": "interfaceId",
          "type": "bytes4"
        }
      ],
      "name": "supportsInterface",
      "outputs": [
        {
          "internalType": "bool",
          "name": "",
          "type": "bool"
        }
      ],
      "stateMutability": "view",
      "type": "function"
    },
    {
      "inputs": [],
      "name": "symbol",
      "outputs": [
        {
          "internalType": "string",
          "name": "",
          "type": "string"
        }
      ],
      "stateMutability": "view",
      "type": "function"
    },
    {
      "inputs": [
        {
          "internalType": "uint256",
          "name": "tokenId",
          "type": "uint256"
        }
      ],
      "name": "tokenURI",
      "outputs": [
        {
          "internalType": "string",
          "name": "",
          "type": "string"
        }
      ],
      "stateMutability": "view",
      "type": "function"
    },
    {
      "inputs": [],
      "name": "totalSupply",
      "outputs": [
        {
          "internalType": "uint256",
          "name": "",
          "type": "uint256"
        }
      ],
      "stateMutability": "view",
      "type": "function"
    },
    {
      "inputs": [
        {
          "internalType": "address",
          "name": "from",
          "type": "address"
        },
        {
          "internalType": "address",
          "name": "to",
          "type": "address"
        },
        {
          "internalType": "uint256",
          "name": "tokenId",
          "type": "uint256"
        }
      ],
      "name": "transferFrom",
      "outputs": [],
      "stateMutability": "nonpayable",
      "type": "function"
    },
    {
      "inputs": [
        {
          "internalType": "address",
          "name": "newOwner",
          "type": "address"
        }
      ],
      "name": "transferOwnership",
      "outputs": [],
      "stateMutability": "nonpayable",
      "type": "function"
    }
  ],
  "bytecode": "0x6080604052600160085534801562000015575f80fd5b50604051620015d2380380620015d2833981016040819052620000389162000142565b806040518060400160405280601681526020017f41727443657274696679204365727469666963617465000000000000000000008152506040518060400160405280600681526020016510549510d49560d21b815250815f90816200009e91906200020f565b506001620000ad82826200020f565b5050506001600160a01b038116620000de57604051631e4fbdf760e01b81525f600482015260240160405180910390fd5b620000e981620000f1565b5050620002db565b600680546001600160a01b038381166001600160a01b0319831681179093556040519116919082907f8be0079c531659141344cd1fd0a4f28419497f9722a3daafe3b4186f6b6457e0905f90a35050565b5f6020828403121562000153575f80fd5b81516001600160a01b03811681146200016a575f80fd5b9392505050565b634e487b7160e01b5f52604160045260245ffd5b600181811c908216806200019a57607f821691505b602082108103620001b957634e487b7160e01b5f52602260045260245ffd5b50919050565b601f8211156200020a57805f5260205f20601f840160051c81016020851015620001e65750805b601f840160051c820191505b8181101562000207575f8155600101620001f2565b50505b505050565b81516001600160401b038111156200022b576200022b62000171565b62000243816200023c845462000185565b84620001bf565b602080601f83116001811462000279575f8415620002615750858301515b5f19600386901b1c1916600185901b178555620002d3565b5f85815260208120601f198616915b82811015620002a95788860151825594840194600190910190840162000288565b5085821015620002c757878501515f19600388901b60f8161c191681555b505060018460011b0185555b505050505050565b6112e980620002e95f395ff3fe608060405234801561000f575f80fd5b5060043610610132575f3560e01c806370a08231116100b4578063b45a3c0e11610079578063b45a3c0e14610283578063b88d4fde14610297578063c87b56dd146102aa578063d0def521146102bd578063e985e9c5146102d0578063f2fde38b146102e3575f80fd5b806370a082311461023c578063715018a61461024f5780638da5cb5b1461025757806395d89b4114610268578063a22cb46514610270575f80fd5b806318160ddd116100fa57806318160ddd146101c65780632010b579146101dc57806323b872dd1461020357806342842e0e146102165780636352211e14610229575f80fd5b806301ffc9a71461013657806306fdde031461015e578063081812fc14610173578063095ea7b31461019e578063162094c4146101b3575b5f80fd5b610149610144366004610dae565b6102f6565b60405190151581526020015b60405180910390f35b610166610320565b6040516101559190610e13565b610186610181366004610e25565b6103af565b6040516001600160a01b039091168152602001610155565b6101b16101ac366004610e57565b6103d6565b005b6101b16101c1366004610ec4565b6103e5565b6101ce61043d565b604051908152602001610155565b6101ea635a2d1e0760e11b81565b6040516001600160e01b03199091168152602001610155565b6101b1610211366004610f0c565b610452565b6101b1610224366004610f0c565b6104e0565b610186610237366004610e25565b6104ff565b6101ce61024a366004610f45565b610509565b6101b161054e565b6006546001600160a01b0316610186565b610166610561565b6101b161027e366004610f5e565b610570565b610149610291366004610e25565b50600190565b6101b16102a5366004610fab565b61057b565b6101666102b8366004610e25565b610593565b6101ce6102cb366004611080565b61063a565b6101496102de3660046110b6565b6106a9565b6101b16102f1366004610f45565b6106d6565b5f6001600160e01b03198216635a2d1e0760e11b148061031a575061031a82610713565b92915050565b60605f805461032e906110e7565b80601f016020809104026020016040519081016040528092919081815260200182805461035a906110e7565b80156103a55780601f1061037c576101008083540402835291602001916103a5565b820191905f5260205f20905b81548152906001019060200180831161038857829003601f168201915b5050505050905090565b5f6103b982610762565b505f828152600460205260409020546001600160a01b031661031a565b6103e182823361079a565b5050565b5f6103ef846104ff565b9050336001600160a01b0382161480159061041557506006546001600160a01b03163314155b1561041e575f80fd5b5f848152600760205260409020610436838583611163565b5050505050565b5f600160085461044d9190611231565b905090565b6001600160a01b03821661048057604051633250574960e11b81525f60048201526024015b60405180910390fd5b5f61048c8383336107a7565b9050836001600160a01b0316816001600160a01b0316146104da576040516364283d7b60e01b81526001600160a01b0380861660048301526024820184905282166044820152606401610477565b50505050565b6104fa83838360405180602001604052805f81525061057b565b505050565b5f61031a82610762565b5f6001600160a01b038216610533576040516322718ad960e21b81525f6004820152602401610477565b506001600160a01b03165f9081526003602052604090205490565b610556610807565b61055f5f610834565b565b60606001805461032e906110e7565b6103e1338383610885565b610586848484610452565b6104da3385858585610923565b606061059e826104ff565b505f82815260076020526040902080546105b7906110e7565b80601f01602080910402602001604051908101604052809291908181526020018280546105e3906110e7565b801561062e5780601f106106055761010080835404028352916020019161062e565b820191905f5260205f20905b81548152906001019060200180831161061157829003601f168201915b50505050509050919050565b5f6001600160a01b038416331480159061065f57506006546001600160a01b03163314155b15610668575f80fd5b50600880549081905f61067a83611244565b91905055506106898482610a4a565b5f8181526007602052604090206106a1838583611163565b509392505050565b6001600160a01b039182165f90815260056020908152604080832093909416825291909152205460ff1690565b6106de610807565b6001600160a01b03811661070757604051631e4fbdf760e01b81525f6004820152602401610477565b61071081610834565b50565b5f6001600160e01b031982166380ac58cd60e01b148061074357506001600160e01b03198216635b5e139f60e01b145b8061031a57506301ffc9a760e01b6001600160e01b031983161461031a565b5f818152600260205260408120546001600160a01b03168061031a57604051637e27328960e01b815260048101849052602401610477565b6104fa8383836001610a63565b5f828152600260205260408120546001600160a01b031680158015906107d557506001600160a01b03851615155b156107f357604051635a8181f760e01b815260040160405180910390fd5b6107fe858585610b67565b95945050505050565b6006546001600160a01b0316331461055f5760405163118cdaa760e01b8152336004820152602401610477565b600680546001600160a01b038381166001600160a01b0319831681179093556040519116919082907f8be0079c531659141344cd1fd0a4f28419497f9722a3daafe3b4186f6b6457e0905f90a35050565b6001600160a01b0382166108b757604051630b61174360e31b81526001600160a01b0383166004820152602401610477565b6001600160a01b038381165f81815260056020908152604080832094871680845294825291829020805460ff191686151590811790915591519182527f17307eab39ab6107e8899845ad3d59bd9653f200f220920489ca2b5937696c31910160405180910390a3505050565b6001600160a01b0383163b1561043657604051630a85bd0160e11b81526001600160a01b0384169063150b7a029061096590889088908790879060040161125c565b6020604051808303815f875af192505050801561099f575060408051601f3d908101601f1916820190925261099c91810190611298565b60015b610a06573d8080156109cc576040519150601f19603f3d011682016040523d82523d5f602084013e6109d1565b606091505b5080515f036109fe57604051633250574960e11b81526001600160a01b0385166004820152602401610477565b805160208201fd5b6001600160e01b03198116630a85bd0160e11b14610a4257604051633250574960e11b81526001600160a01b0385166004820152602401610477565b505050505050565b6103e1828260405180602001604052805f815250610c59565b8080610a7757506001600160a01b03821615155b15610b38575f610a8684610762565b90506001600160a01b03831615801590610ab25750826001600160a01b0316816001600160a01b031614155b8015610ac55750610ac381846106a9565b155b15610aee5760405163a9fbf51f60e01b81526001600160a01b0384166004820152602401610477565b8115610b365783856001600160a01b0316826001600160a01b03167f8c5be1e5ebec7d5bd14f71427d1e84f3dd0314c0f7b2291e5b200ac8c7c3b92560405160405180910390a45b505b50505f90815260046020526040902080546001600160a01b0319166001600160a01b0392909216919091179055565b5f828152600260205260408120546001600160a01b0390811690831615610b9357610b93818486610c70565b6001600160a01b03811615610bcd57610bae5f855f80610a63565b6001600160a01b0381165f90815260036020526040902080545f190190555b6001600160a01b03851615610bfb576001600160a01b0385165f908152600360205260409020805460010190555b5f8481526002602052604080822080546001600160a01b0319166001600160a01b0389811691821790925591518793918516917fddf252ad1be2c89b69c2b068fc378daa952ba7f163c4a11628f55a4df523b3ef91a4949350505050565b610c638383610cd4565b6104fa335f858585610923565b610c7b838383610d35565b6104fa576001600160a01b038316610ca957604051637e27328960e01b815260048101829052602401610477565b60405163177e802f60e01b81526001600160a01b038316600482015260248101829052604401610477565b6001600160a01b038216610cfd57604051633250574960e11b81525f6004820152602401610477565b5f610d0983835f6107a7565b90506001600160a01b038116156104fa576040516339e3563760e11b81525f6004820152602401610477565b5f6001600160a01b03831615801590610d915750826001600160a01b0316846001600160a01b03161480610d6e5750610d6e84846106a9565b80610d9157505f828152600460205260409020546001600160a01b038481169116145b949350505050565b6001600160e01b031981168114610710575f80fd5b5f60208284031215610dbe575f80fd5b8135610dc981610d99565b9392505050565b5f81518084525f5b81811015610df457602081850181015186830182015201610dd8565b505f602082860101526020601f19601f83011685010191505092915050565b602081525f610dc96020830184610dd0565b5f60208284031215610e35575f80fd5b5035919050565b80356001600160a01b0381168114610e52575f80fd5b919050565b5f8060408385031215610e68575f80fd5b610e7183610e3c565b946020939093013593505050565b5f8083601f840112610e8f575f80fd5b50813567ffffffffffffffff811115610ea6575f80fd5b602083019150836020828501011115610ebd575f80fd5b9250929050565b5f805f60408486031215610ed6575f80fd5b83359250602084013567ffffffffffffffff811115610ef3575f80fd5b610eff86828701610e7f565b9497909650939450505050565b5f805f60608486031215610f1e575f80fd5b610f2784610e3c565b9250610f3560208501610e3c565b9150604084013590509250925092565b5f60208284031215610f55575f80fd5b610dc982610e3c565b5f8060408385031215610f6f575f80fd5b610f7883610e3c565b915060208301358015158114610f8c575f80fd5b809150509250929050565b634e487b7160e01b5f52604160045260245ffd5b5f805f8060808587031215610fbe575f80fd5b610fc785610e3c565b9350610fd560208601610e3c565b925060408501359150606085013567ffffffffffffffff80821115610ff8575f80fd5b818701915087601f83011261100b575f80fd5b81358181111561101d5761101d610f97565b604051601f8201601f19908116603f0116810190838211818310171561104557611045610f97565b816040528281528a602084870101111561105d575f80fd5b826020860160208301375f60208483010152809550505050505092959194509250565b5f805f60408486031215611092575f80fd5b61109b84610e3c565b9250602084013567ffffffffffffffff811115610ef3575f80fd5b5f80604083850312156110c7575f80fd5b6110d083610e3c565b91506110de60208401610e3c565b90509250929050565b600181811c908216806110fb57607f821691505b60208210810361111957634e487b7160e01b5f52602260045260245ffd5b50919050565b601f8211156104fa57805f5260205f20601f840160051c810160208510156111445750805b601f840160051c820191505b81811015610436575f8155600101611150565b67ffffffffffffffff83111561117b5761117b610f97565b61118f8361118983546110e7565b8361111f565b5f601f8411600181146111c0575f85156111a95750838201355b5f19600387901b1c1916600186901b178355610436565b5f83815260208120601f198716915b828110156111ef57868501358255602094850194600190920191016111cf565b508682101561120b575f1960f88860031b161c19848701351681555b505060018560011b0183555050505050565b634e487b7160e01b5f52601160045260245ffd5b8181038181111561031a5761031a61121d565b5f600182016112555761125561121d565b5060010190565b6001600160a01b03858116825284166020820152604081018390526080606082018190525f9061128e90830184610dd0565b9695505050505050565b5f602082840312156112a8575f80fd5b8151610dc981610d9956fea26469706673582212205a5e51f9d4d7476434cb129e668ddd55c7079397b37177333fc88d3e7217dd0664736f6c63430008180033",
  "linkReferences": {},
  "deployedLinkReferences": {},
  "immutableReferences": {},
  "inputSourceName": "project/contracts/ArtCertifySBT.sol",
  "buildInfoId": "solc-0_8_24-78bd4d40047f435e306682e1a7450ede418fd968"
}